:100000000C9430000C948E020C948E020C948E0290
:100010000C948E020C948E020C948E020C948E0220
:100020000C948E020C948E020C948E020C948E0210
:100030000C948E020C948E020C948E020C948E0200
:100040000C948E020C948E020C948E020C948E02F0
:100050000C948E02006000E300052A00E300E580B6
:1000600011241FBECFE5D8E0DEBFCDBFE4E5F0E050
:1000700040E017C0B591A59135912591059107FDF7
:100080000CC095918591EF01F92FE82F05900D9205
:10009000A217B307D9F7FE0104C01D92A217B30738
:1000A000E1F7E036F40731F70E945A000C946A0237
:0400B000F894FFCFF2
:1000B4001ABA82E08BBB8FE187BB18BA14BA15BA9F
:1000C4008FEF81BB12BA0E9489020E94E10161E0B4
:1000D40081E00E947F0284E790E00E94330261E0A5
:1000E40082E00E947F0280E890E00E9433022FEFBA
:1000F40037EA81E6215030408040E1F700C000003B
:100104000E947502BB24B394A12C0F2EFFE0EF2EA6
:10011400F7E2FF2EF02D00E610E0CAE6D0E089B346
:10012400827090E02B2D009709F42A2D3091E20083
:10013400313029F5892B19F59FEF39EF80E0915083
:1001440030408040E1F700C00000C99918C0809198
:10015400E400811105C0B092E400B092E30002C053
:10016400A092E400F092E000E092DF009FEF33EC15
:1001740089E0915030408040E1F700C000002093B6
:10018400E2008A2D0E945E026C018091E4008823C3
:1001940059F088B3887E88BB8091E300882311F0EE
:1001A400C39A33C0C39831C091E2C91693E0D9060B
:1001B40028F088B3847E88BBC29A27C029E5C2167A
:1001C40022E0D20628F088B3827E88BBC19A1DC083
:1001D40031E9C31631E0D30638F088B3897E88BB91
:1001E40088B3896088BB11C088B3897F88BB88B312
:1001F400896088BBC49A8FEF91EE24E081509040CF
:100204002040E1F700C00000C4988091DF00909185
:10021400E0009601281B390BC90197FF03C0919593
:100224008195910906973CF49091E4008091E10056
:10023400981709F457C00E9475028091E40088233E
:10024400C1F06B2D8B2D0E947F028DE890E00E94FF
:1002540033026B2D82E00E947F028091E3008111C2
:1002640003C08C2F9D2F02C0802F912F0E94330238
:1002740031C06B2D8B2D0E947F0289E990E00E9492
:100284003302C6010E947E016B2D82E00E947F0230
:1002940031E2C31633E0D30628F08FE990E00E94E0
:1002A400330218C089E5C81682E0D80628F08FEA20
:1002B40090E00E9433020EC091E9C91691E0D9067C
:1002C40028F08FEB90E00E94330204C08FEC90E0A2
:1002D4000E943302D092E000C092DF008091E400DB
:1002E4008093E1002FEF30E782E0215030408040DE
:0802F400E1F700C0000013CF88
:1002FC00EF92FF920F931F93CF93DF9300D000D018
:10030C0000D0CDB7DEB7AC01892B21F480E30E947D
:10031C001B0244C080E011E0180FE1E0F0E0EC0FAC
:10032C00FD1FE80FF11D9A01ADECBCEC0E944202DE
:10033C00969587959695879596958795880F991F8D
:10034C009C01220F331F220F331F820F931F9A0120
:10035C00281B390BC901805D80839A010E944202DF
:10036C00AC01569547955695479556954795812FCF
:10037C004115510581F6812F90E001977AF0CE015D
:10038C000196FC01E10FF11D8F017C01F8018291B6
:10039C008F010E941B02E016F106C1F726960FB6DC
:1003AC00F894DEBF0FBECDBFDF91CF911F910F919F
:0603BC00FF90EF90089590
:1003C20081B3836F81BB2FEF89EF90E02150804092
:1003D2009040E1F700C0000082E00E94030288E240
:1003E2000E9403028CE00E94030286E00E94030244
:1003F20081E00E9403028FE39FE10197F1F700C0C1
:040402000000089559
:10040600CF93C82F929882B38F709C2F907F892BA1
:1004160082BB0E94510282B3282F2F7030E1C39F06
:10042600C0011124822B82BB0E945102CF910895F4
:10043600CF93C82F929A82B38F709C2F907F892B6F
:1004460082BB0E94510282B3282F2F7030E1C39FD6
:10045600C0011124822B82BB0E945102CF910895C4
:10046600CF93DF93EC018881882331F021960E9497
:0E0476001B0289918111FBCFDF91CF91089578
:10048400A29FB001B39FC001A39F700D811D1124D1
:0E049400911DB29F700D811D1124911D0895C0
:1004A200939A85E08A95F1F7000093988FE39FE194
:0A04B2000197F1F700C00000089563
:1004BC0097B1907F97B997B1892B87B9369A3699AE
:0804CC00FECF84B195B1089543
:1004D400EC010E9493020E949202CE010E949402B7
:0604E400CE010E9490020F
:1004EA0081E00E9403028FE39FE10197F1F700C0C8
:0404FA000000089561
:1004FE00813019F48FE7860F02C08FEB860F0E94B2
:04050E000302089547
:0A05120080E487B986E886B90895F1
:04051C000C9400003B
:040520000E945800DD
:02052400089538
:02052600089536
:02052800089534
:10052A004C414D503A204F4E20004C414D503A20FC
:10053A004F464600534D415254204C4947485400B7
:10054A0053595354454D205245414459004D414E4B
:10055A0055414C204D4F4445004144433A20004206
:10056A005249474854204C414D503A4F4646004D57
:10057A00454449554D204C414D503A4F4646004C52
:10058A004F57202020204C414D503A4F4E200056C4
:0F059A002E4C4F5720204C414D503A4F4E2000D1
:0205A9000F271A
:0105AB00FF50
:0105AC00014D
:00000001FF
