:100000000C9430000C94BC020C94BC020C94BC0206
:100010000C94BC020C94BC020C94BC020C94BC0268
:100020000C94BC020C94BC020C94BC020C94BC0258
:100030000C94BC020C94BC020C94BC020C94BC0248
:100040000C94BC020C94BC020C94BC020C94BC0238
:100050000C94BC02006000F700058600F700F980F0
:1000600011241FBECFE5D8E0DEBFCDBFE4E5F0E050
:1000700040E017C0B591A59135912591059107FDF7
:100080000CC095918591EF01F92FE82F05900D9205
:10009000A217B307D9F7FE0104C01D92A217B30738
:1000A000E1F7E036F40731F70E945A000C9494020D
:0400B000F894FFCFF2
:1000B4001ABA82E08BBB8FE187BB18BA14BA15BA9F
:1000C4008FEF81BB12BA0E94B3020E940B0261E05F
:1000D40081E00E94A90284E790E00E945D0261E051
:1000E40082E00E94A90280E890E00E945D022FEF66
:1000F40087EA91E6215080409040E1F700C000007B
:100104000E949F02C1E0D0E00F2EF0E6EF2EF0E057
:10011400FF2EF02D0AE610E089B3827090E0DC2E09
:10012400009709F4DD2E2091F600213009F067C014
:10013400892B09F064C02FEF89EF90E021508040B3
:100144009040E1F700C00000C99959C08091F800BF
:10015400811125C0C093F8000E949F026C2F8C2F40
:100164000E94A9028DE890E00E945D026C2F82E05B
:100174000E94A9028091F700811103C0802F912F62
:1001840002C08E2D9F2D0E945D022FEF83ED90E320
:10019400215080409040E1F700C0000030C08091C1
:1001A400F7008C278093F7000E94B8028091F70033
:1001B400882311F0C39A01C0C3980E949F026C2F38
:1001C4008C2F0E94A9028DE890E00E945D026C2FA2
:1001D40082E00E94A9028091F700811103C0802F60
:1001E400912F02C08E2D9F2D0E945D022FEF89E674
:1001F40098E1215080409040E1F700C00000D09287
:10020400F6008D2F0E9488026C010697843F93406C
:1002140008F10E94B802C09AC49A0E949F026C2FEF
:100224008C2F0E94A90289E990E00E945D026C2F44
:1002340082E00E94A90287EA90E00E945D028FEFAB
:1002440099E628E1815090402040E1F700C0000089
:10025400C49862CF8091F800882319F10E949F020C
:100264006C2F8C2F0E94A9028DE890E00E945D0201
:100274006C2F82E00E94A9028091F700811103C0D3
:10028400802F912F02C08E2D9F2D0E945D028FEF33
:1002940095EA2EE0815090402040E1F700C0000034
:1002A4003BCF0E94B8020E949F026C2F8C2F0E94A9
:1002B400A90281EB90E00E945D02C6010E94A801A0
:1002C4006C2F82E00E94A90281E2C81683E0D8065E
:1002D40040F0C29AC398C49886EB90E00E945D02F5
:1002E4002BC099E5C91692E0D90640F0C19AC3988B
:1002F400C49886EC90E00E945D021EC021E9C216FB
:1003040021E0D20640F0C09AC39AC49886ED90E0EA
:100314000E945D0211C0C09AC39AC49A86EE90E00E
:100324000E945D028FEF93EC29E0815090402040C1
:10033400E1F700C00000C4988FEF99E628E18150EE
:0C03440090402040E1F700C00000E6CE31
:10035000EF92FF920F931F93CF93DF9300D000D0C3
:1003600000D0CDB7DEB7AC01892B21F480E30E9429
:10037000450244C080E011E0180FE1E0F0E0EC0F2E
:10038000FD1FE80FF11D9A01ADECBCEC0E946C0260
:10039000969587959695879596958795880F991F39
:1003A0009C01220F331F220F331F820F931F9A01CC
:1003B000281B390BC901805D80839A010E946C0261
:1003C000AC01569547955695479556954795812F7B
:1003D0004115510581F6812F90E001977AF0CE0109
:1003E0000196FC01E10FF11D8F017C01F801829162
:1003F0008F010E944502E016F106C1F726960FB65E
:10040000F894DEBF0FBECDBFDF91CF911F910F914A
:06041000FF90EF9008953B
:1004160081B3836F81BB2FEF89EF90E0215080403D
:100426009040E1F700C0000082E00E942D0288E2C1
:100436000E942D028CE00E942D0286E00E942D0271
:1004460081E00E942D028FE39FE10197F1F700C042
:040456000000089505
:10045A00CF93C82F929882B38F709C2F907F892B4D
:10046A0082BB0E947B0282B3282F2F7030E1C39F88
:10047A00C0011124822B82BB0E947B02CF91089576
:10048A00CF93C82F929A82B38F709C2F907F892B1B
:10049A0082BB0E947B0282B3282F2F7030E1C39F58
:1004AA00C0011124822B82BB0E947B02CF91089546
:1004BA00CF93DF93EC018881882331F021960E9443
:0E04CA00450289918111FBCFDF91CF910895FA
:1004D800A29FB001B39FC001A39F700D811D11247D
:0E04E800911DB29F700D811D1124911D08956C
:1004F600939A85E08A95F1F7000093988FE39FE140
:0A0506000197F1F700C0000008950E
:1005100097B1907F97B997B1892B87B9369A369959
:08052000FECF84B195B10895EE
:10052800EC010E94C1020E94C002CE010E94C202D8
:06053800CE010E94BE028C
:10053E0081E00E942D028FE39FE10197F1F700C049
:04054E00000008950C
:10055200813019F48FE7860F02C08FEB860F0E945D
:040562002D020895C9
:0A05660080E487B986E886B908959D
:0805700088B3807E88BB08956A
:040578000C940000DF
:04057C000E94580081
:020580000895DC
:020582000895DA
:020584000895D8
:100586004C414D503A204F4E20004C414D503A20A0
:100596004F464600534D415254204C49474854005B
:1005A60053595354454D205245414459004D414EEF
:1005B60055414C204D4F44450053454E534F522014
:1005C6004552524F522100436865636B204C44529A
:1005D600004144433A00425249474854204C414D59
:1005E600503A4F4646004D454449554D204C414DE5
:1005F600503A4F4646004C4F57202020204C414D44
:10060600503A4F4E2000562E4C4F5720204C414D0D
:06061600503A4F4E200097
:01061C0001DC
:00000001FF
